:020000040800F2
:1000000000280020D50F0008650F00086B0F0008BE
:10001000710F0008770F00087D0F00080000000036
:10002000000000000000000000000000830F000836
:100030008F0F0008000000009B0F0008A70F0008AA
:100040001D1000081D1000081D1000081D100008DC
:100050001D1000081D1000081D1000081D100008CC
:100060001D1000081D1000081D1000081D100008BC
:100070001D1000081D1000081D1000081D100008AC
:100080001D1000081D1000081D1000081D1000089C
:100090001D1000081D1000081D1000081D1000088C
:1000A0001D1000081D1000081D1000081D1000087C
:1000B000B50F00081D100008000000001D1000080A
:1000C0001D10000800000000000000001D100008C6
:1000D000000000001D1000081D10000800000000B6
:1000E0001D1000081D1000081D1000080000000071
:1000F0000000000000000000000000000000000000
:0C01000000000000000000005FF808F1A3
:10010C0010B5054C237833B9044B13B10448AFF345
:10011C0000800123237010BD4C0000200000000063
:10012C007426000808B5034B1BB103490348AFF311
:10013C00008008BD0000000050000020742600085C
:10014C0080B500AFC34B1B68002B22D100220121CC
:10015C00C14801F060FA00220221BF4801F05BFAAD
:10016C0000220421BC4801F056FA00220821BA48AA
:10017C0001F051FA00221021B74801F04CFA00228C
:10018C002021B54801F047FA01224021B24801F084
:10019C0042FAB04B1B68012B22D100220221AE483F
:1001AC0001F039FA00220421AB4801F034FA0122A3
:1001BC000121A94801F02FFA01220821A64801F0DB
:1001CC002AFA01221021A44801F025FA012220214B
:1001DC00A14801F020FA012240219F4801F01BFAAE
:1001EC009C4B1B68022B22D1002201219A4801F062
:1001FC0012FA00220221984801F00DFA002208217F
:10020C00954801F008FA00221021934801F003FAF6
:10021C0000224021904801F0FEF9012204218E4871
:10022C0001F0F9F9012220218B4801F0F4F9894BF6
:10023C001B68032B22D100220121874801F0EBF926
:10024C0000220221844801F0E6F9002204218248B0
:10025C0001F0E1F9002208217F4801F0DCF90022CD
:10026C0040217D4801F0D7F9012210217A4801F094
:10027C00D2F901222021784801F0CDF9754B1B6889
:10028C00042B22D100220221734801F0C4F9002270
:10029C000421714801F0BFF9002220216E4801F0C1
:1002AC00BAF9002240216C4801F0B5F90122012174
:1002BC00694801F0B0F901220821674801F0ABF957
:1002CC0001221021644801F0A6F9624B1B68052B32
:1002DC0022D100220121604801F09DF90022042165
:1002EC005D4801F098F9002208215B4801F093F970
:1002FC0000222021584801F08EF900224021564856
:10030C0001F089F901220221534801F084F90122FC
:10031C001021514801F07FF94E4B1B68062B22D15E
:10032C00002201214C4801F076F9002204214A48B0
:10033C0001F071F900220821474801F06CF9002204
:10034C001021454801F067F900222021424801F0B4
:10035C0062F900224021404801F05DF9012202219E
:10036C003D4801F058F93B4B1B68072B22D100226A
:10037C000121394801F04FF900220221364801F0E1
:10038C004AF900220421344801F045F901220821E0
:10039C00314801F040F9012210212F4801F03BF9BE
:1003AC00012220212C4801F036F9012240212A4853
:1003BC0001F031F9274B1B68082B22D100220121B7
:1003CC00254801F028F900220221234801F023F9E5
:1003DC0000220421204801F01EF9002208211E48A9
:1003EC0001F019F9002210211B4801F014F9002228
:1003FC002021194801F00FF900224021164801F084
:10040C000AF9144B1B68092B22D100220121124836
:10041C0001F001F9002202210F4801F0FCF8002242
:10042C0004210D4801F0F7F8002208210A4801F0D8
:10043C00F2F800222021084801F0EDF800224021BA
:10044C00054801F0E8F801221021034801F0E3F817
:10045C0000BF80BD80000020000C014080B483B040
:10046C0000AF7860044A7B6852F8233018460C378A
:10047C00BD4680BC704700BF6800002080B400AF50
:10048C00064B1B68012B04D1044B00221A6001237C
:10049C0000E000231846BD4680BC70477800002061
:1004AC0080B400AF064B1B68012B04D1044B002217
:1004BC001A60012300E000231846BD4680BC70473B
:1004CC007C00002080B483B000AF78607B68002B88
:1004DC0003D10B4B01221A600CE07B68012B03D17A
:1004EC00084B01221A6005E07B68022B02D1064BF7
:1004FC0001221A6000BF0C37BD4680BC704700BF9C
:10050C0074000020780000207C00002080B582B0B0
:10051C0000AF00237B609FE0544A7B6852F8232095
:10052C0053497B6841F82320524A7B6852F82320B8
:10053C004E497B6841F823207B68002B0AD180212F
:10054C004D4801F051F8034619464A4A7B6842F877
:10055C0023101CE07B68012B0BD14FF480714648B3
:10056C0001F042F803461946424A7B6842F82310D0
:10057C000DE07B68022B0AD14FF400713E4801F06C
:10058C0033F8034619463B4A7B6842F82310374A36
:10059C007B6852F8232036497B6851F823309A4205
:1005AC0057D1324A7B6852F8232032497B6851F884
:1005BC0023309A424DD12F4A7B6852F823202F4981
:1005CC007B6851F823309A421DD02A4A7B6852F836
:1005DC0023202A497B6841F82320264A7B6852F85D
:1005EC002330002B09D1264A7B684FF4967142F8D0
:1005FC0023107868FFF766FF2BE0224A7B68002106
:10060C0042F8231025E01E4A7B6852F82330002B59
:10061C0009DD1B4A7B6852F823305A1E18497B6847
:10062C0041F8232015E0164A7B6852F82330002B42
:10063C000FD1104A7B6852F82330002B09D1114A94
:10064C007B68012142F823100C4A7B68012142F897
:10065C0023107B6801337B607B68022B7FF75CAFD8
:10066C0000BF00BF0837BD4680BD00BF0C00002096
:10067C000000002018000020000C01402400002085
:10068C00300000206800002080B500AF6E4B1B6866
:10069C00012B07D14FF47A7000F098FB20216B48A6
:1006AC0000F0D1FF6A4B1B68013B082B00F2A381C1
:1006BC0001A252F823F000BFE9060008030A000863
:1006CC00F506000899070008750800082D090008B0
:1006DC00030A0008030A0008CF0900085D4B092231
:1006EC001A605B4B03221A605B4B1B68012B06D113
:1006FC004FF47A7000F01CFB554B09221A60FFF77F
:10070C001FFD564B1B68012B06D142F2107000F0F6
:10071C0043FB4F4B06221A60514B1B68012B06D131
:10072C0042F2107000F038FB494B04221A604D4B1A
:10073C001B68012B06D142F2107000F02DFB444BCC
:10074C0005221A600120FFF789FE0346012B0AD10E
:10075C0042F2107000F020FB4FF47A7000F002FBB4
:10076C003B4B07221A600220FFF778FE0346002B52
:10077C0000F0438142F2107000F00EFB4FF47A70DF
:10078C0000F0F0FA324B08221A6036E1344B1B6849
:10079C00012B14D142F2107000F0FEFA304B002203
:1007AC001A602C4B1B6801332A4A1360294B1B68B7
:1007BC00092B02DD274B00221A60FFF7C1FC264BE8
:1007CC001B68012B06D14FF47A7000F0B1FA204B64
:1007DC0009221A60214B1B68012B06D142F21070C2
:1007EC0000F0DAFA1A4B06221A601E4B1B68012B1A
:1007FC0006D142F2107000F0CFFA154B05221A60A8
:10080C000120FFF72BFE0346012B0AD14FF47A701F
:10081C0000F0A8FA42F2107000F0BEFA0C4B07225E
:10082C001A600220FFF71AFE0346002B00F0E78047
:10083C004FF47A7000F096FA42F2107000F0ACFAB5
:10084C00034B08221A60DAE0A000002000080140E7
:10085C00A4000020800000209C00002074000020D8
:10086C00780000207C000020684B1B68012B14D101
:10087C0042F2107000F090FA644B00221A60644B44
:10088C001B68013B624A1360614B1B68002B02DA48
:10089C005F4B09221A60FFF753FC5E4B1B68012B60
:1008AC0006D14FF47A7000F043FA5B4B09221A60C0
:1008BC005A4B1B68012B06D1574B06221A6042F289
:1008CC00107000F069FA564B1B68012B06D1524B85
:1008DC0004221A6042F2107000F05EFA0120FFF759
:1008EC00BDFD0346012B0AD14FF47A7000F03AFAA1
:1008FC0042F2107000F050FA474B07221A600220A7
:10090C00FFF7ACFD0346002B0AD04FF47A7000F0D1
:10091C0029FA42F2107000F03FFA3F4B08221A609D
:10092C003E4B1B68012B0BD13C4B00221A6042F250
:10093C00107000F031FA364B00221A60FFF700FC01
:10094C00374B1B68012B0AD1334B04221A6042F23D
:10095C00107000F021FA4FF47A7000F0E9F92B4B8B
:10096C001B68012B0AD12C4B05221A6042F2107025
:10097C0000F012FA4FF47A7000F0DAF90120FFF768
:10098C006DFD0346012B0AD14FF47A7000F0EAF9A1
:10099C0042F2107000F000FA1F4B07221A6002207E
:1009AC00FFF75CFD0346002B2BD04FF47A7000F060
:1009BC00D9F942F2107000F0EFF9174B08221A60C7
:1009CC001FE0184B1B68012B1DD14FF47A7000F0FF
:1009DC00AFF90F4B1B68013B0D4A1360FFF7B0FBDF
:1009EC000B4B1B68002B0ED10A4B00221A600A4BD2
:1009FC0003221A6007E000BF06E000BF04E000BF5E
:100A0C0002E000BF00E000BF00BF80BD7C00002002
:100A1C00800000209C000020A40000207400002016
:100A2C00780000209400002080B500AF2D4B1B688F
:100A3C00072B02D0082B2AD052E02B4B1B68012B22
:100A4C0015D14FF47A7000F08DF9284B1B68591CA6
:100A5C00274B83FB01239A10CB17D21A13469B000A
:100A6C0013445B00CA1A214B1A60FFF769FB012083
:100A7C00FFF7F4FC0346002B2FD142F2107000F06C
:100A8C008BF9184B03221A60FFF7F8FC25E0164B84
:100A9C001B68012B11D14FF47A7000F063F9134BE2
:100AAC001B68002B02D1114B0A221A600F4B1B68DA
:100ABC00013B0E4A1360FFF743FB0220FFF7CEFC0D
:100ACC000346002B0BD142F2107000F065F9054B78
:100ADC0003221A60FFF7E4FC01E000BF00E000BF56
:100AEC0000BF80BDA40000209800002080000020E2
:100AFC006766666680B500AF00F08CFA00F018F8F7
:100B0C0000F09EF800F050F8074801F0EDF9074BA3
:100B1C0001221A604FF47A7000F058F9FFF7B4FD17
:100B2C00FFF782FFFAE700BFA8000020A400002016
:100B3C0080B590B000AF07F11803282200211846A9
:100B4C0001F08AFD3B1D00221A605A609A60DA603F
:100B5C001A610223BB610123BB621023FB620023D9
:100B6C007B6307F11803184600F086FD0346002B43
:100B7C0001D000F0D7F80F237B600023BB6000236B
:100B8C00FB6000233B6100237B613B1D0021184669
:100B9C0000F0F2FF0346002B01D000F0C3F800BFB9
:100BAC004037BD4680BD000080B586B000AF07F170
:100BBC00080300221A605A609A60DA603B460022F1
:100BCC001A605A601D4B4FF080421A601B4B41F665
:100BDC003F725A60194B00229A60184B0922DA6056
:100BEC00164B00221A61154B00229A61134801F032
:100BFC002BF90346002B01D000F094F84FF48053EE
:100C0C00BB6007F1080319460C4801F0C1FA034612
:100C1C00002B01D000F086F800233B6000237B60A2
:100C2C003B461946054801F089FC0346002B01D0D0
:100C3C0000F078F800BF1837BD4680BDA800002032
:100C4C0080B586B000AF07F1080300221A605A6025
:100C5C009A60DA602A4B9B69294A43F0040393613A
:100C6C00274B9B6903F004037B607B68244B9B69D7
:100C7C00234A43F008039361214B9B6903F008035B
:100C8C003B603B68012238211E4800F0C4FC002266
:100C9C004FF4FE511B4800F0BEFC00227F211A4885
:100CAC0000F0B9FC41F6F873BB600123FB60002334
:100CBC003B6102237B6107F108031946114800F0E0
:100CCC0019FB7F23BB600123FB6000233B610223E4
:100CDC007B6107F1080319460B4800F00BFB4FF43E
:100CEC006073BB600023FB6001233B6107F10803C9
:100CFC001946054800F0FEFA00BF1837BD4680BD06
:100D0C000010024000080140000C014080B582B088
:100D1C0000AF786000F074F8FFF7F8FB00BF0837FD
:100D2C00BD4680BD80B400AF72B600BFFEE70000C8
:100D3C0080B483B000AF7860074B1B687A6892FB75
:100D4C00F3F3064A1360064B00221A6000BF0C37FF
:100D5C00BD4680BC704700BF3C00002084000020D2
:100D6C009400002080B483B000AF7860074B1B6800
:100D7C007A6892FBF3F3064A1360064B00221A6062
:100D8C0000BF0C37BD4680BC704700BF3C00002044
:100D9C00880000209800002080B483B000AF7860F9
:100DAC00074B1B687A6892FBF3F3064A1360064BF9
:100DBC0000221A6000BF0C37BD4680BC704700BFD4
:100DCC003C0000208C0000209C00002080B483B0EC
:100DDC0000AF7860074B1B687A6892FBF3F3064A06
:100DEC001360064B00221A6000BF0C37BD4680BC56
:100DFC00704700BF3C00002090000020A0000020A5
:100E0C0080B400AF214B1B68002B0BDD1F4B1B6804
:100E1C00013B1E4A13601D4B1B68002B02DC1C4B54
:100E2C0001221A601B4B1B68002B0BDD194B1B6836
:100E3C00013B184A1360174B1B68002B02DC164B46
:100E4C0001221A60154B1B68002B0BDD134B1B6822
:100E5C00013B124A1360114B1B68002B02DC104B38
:100E6C0001221A600F4B1B68002B0BDD0D4B1B680E
:100E7C00013B0C4A13600B4B1B68002B02DC0A4B2A
:100E8C0001221A6000BFBD4680BC70478400002060
:100E9C009400002088000020980000208C00002086
:100EAC009C00002090000020A000002080B485B0A1
:100EBC0000AF154B9B69144A43F001039361124B2D
:100ECC009B6903F00103BB60BB680F4BDB690E4AE7
:100EDC0043F08053D3610C4BDB6903F080537B6090
:100EEC007B680A4B5B68FB60FB6823F0E063FB608C
:100EFC00FB6843F08063FB60044AFB68536000BFEF
:100F0C001437BD4680BC7047001002400000014001
:100F1C0080B584B000AF78607B681B68B3F1804FFC
:100F2C0013D10C4BDB690B4A43F00103D361094B22
:100F3C00DB6903F00103FB60FB68002200211C202D
:100F4C0000F0A1F91C2000F0BAF900BF1037BD4623
:100F5C0080BD00BF0010024080B400AFFEE780B43B
:100F6C0000AFFEE780B400AFFEE780B400AFFEE751
:100F7C0080B400AFFEE780B400AF00BFBD4680BCBC
:100F8C00704780B400AF00BFBD4680BC704780B4D2
:100F9C0000AF00BFBD4680BC704780B500AF00F00D
:100FAC007FF800BF80BD000080B500AF024800F0A4
:100FBC00E7FF00BF80BD00BFA800002080B400AFD9
:100FCC0000BFBD4680BC70470C480D490D4A00233C
:100FDC0002E0D458C4500433C4188C42F9D30A4AE2
:100FEC000A4C002301E013600432A242FBD3FFF74A
:100FFC00E5FF01F00DFBFFF77DFD704700000020C1
:10100C004C000020B42600084C000020F400002006
:10101C00FEE7000080B500AF084B1B68074A43F0A1
:10102C0010031360032000F023F90F2000F008F8E0
:10103C00FFF73CFF0023184680BD00BF0020024094
:10104C0080B582B000AF7860124B1A68124B1B78D7
:10105C0019464FF47A73B3FBF1F3B2FBF3F3184672
:10106C0000F03BF90346002B01D001230EE07B6816
:10107C000F2B0AD8002279684FF0FF3000F003F9EB
:10108C00064A7B681360002300E0012318460837EA
:10109C00BD4680BD400000204800002044000020D8
:1010AC0080B400AF054B1B781A46054B1B681344E4
:1010BC00034A136000BFBD4680BC70474800002047
:1010CC00F000002080B400AF024B1B681846BD46F0
:1010DC0080BC7047F000002080B485B000AF786011
:1010EC007B6803F00703FB600C4BDB68BB60BA68E2
:1010FC004FF6FF031340BB60FB681A02BB68134337
:10110C0043F0BF6343F40033BB60044ABB68D36055
:10111C0000BF1437BD4680BC704700BF00ED00E037
:10112C0080B400AF044BDB681B0A03F007031846BE
:10113C00BD4680BC704700BF00ED00E080B483B0BA
:10114C0000AF0346FB7197F90730002B0BDBFB79E3
:10115C0003F01F02064997F907305B09012000FADA
:10116C0002F241F8232000BF0C37BD4680BC70470B
:10117C0000E100E080B483B000AF03463960FB713E
:10118C0097F90730002B0ADB3B68DAB20C4997F968
:10119C0007301201D2B20B4483F800230AE03B68FB
:1011AC00DAB20849FB7903F00F03043B1201D2B207
:1011BC000B441A7600BF0C37BD4680BC704700BF8D
:1011CC0000E100E000ED00E080B489B000AFF86011
:1011DC00B9607A60FB6803F00703FB61FB69C3F13C
:1011EC000703042B28BF0423BB61FB690433062BC4
:1011FC0002D9FB69033B00E000237B614FF0FF3217
:10120C00BB6902FA03F3DA43BB681A407B699A4064
:10121C004FF0FF317B6901FA03F3D9437B680B4034
:10122C00134318462437BD4680BC704780B582B046
:10123C0000AF78607B68013BB3F1807F01D3012361
:10124C000FE00A4A7B68013B53600F214FF0FF30DF
:10125C00FFF790FF054B00229A60044B07221A609F
:10126C00002318460837BD4680BD00BF10E000E0E3
:10127C0080B582B000AF78607868FFF72DFF00BFB3
:10128C000837BD4680BD80B586B000AF0346B96057
:10129C007A60FB7300237B61FFF742FF78617A6809
:1012AC00B9687869FFF790FF024697F90F3011463D
:1012BC001846FFF75FFF00BF1837BD4680BD80B5ED
:1012CC0082B000AF0346FB7197F907301846FFF761
:1012DC0035FF00BF0837BD4680BD80B582B000AF7A
:1012EC0078607868FFF7A2FF034618460837BD46BA
:1012FC0080BD000080B48BB000AF786039600023F3
:10130C007B6200233B6248E101227B6A02FA03F311
:10131C00FB613B681B68FA691340BB61BA69FB69E6
:10132C009A4240F037813B685B68A34A93425ED097
:10133C00A14A934275D8A14A934258D09F4A9342EE
:10134C006FD89F4A934252D09D4A934269D89D4A86
:10135C0093424CD09B4A934263D89B4A934246D0CB
:10136C00994A93425DD8122B2AD8122B59D801A234
:10137C0052F823F0FB130008D5130008E7130008FC
:10138C00291400082F1400082F1400082F1400082B
:10139C002F1400082F1400082F1400082F14000815
:1013AC002F1400082F1400082F1400082F14000805
:1013BC002F1400082F140008DD130008F113000887
:1013CC00824A934213D02CE03B68DB683B6229E0F5
:1013DC003B68DB6804333B6224E03B68DB68083322
:1013EC003B621FE03B68DB680C333B621AE03B68F6
:1013FC009B68002B02D104233B6213E03B689B6883
:10140C00012B05D108233B627B68FA691A6109E05C
:10141C0008233B627B68FA695A6103E000233B6254
:10142C0000E000BFBB69FF2B01D87B6801E07B6843
:10143C0004337B61BB69FF2B02D87B6A9B0002E003
:10144C007B6A083B9B003B617B691A680F213B69F7
:10145C0001FA03F3DB431A40396A3B6901FA03F3DF
:10146C001A437B691A603B685B6803F08053002B5E
:10147C0000F09080564B9B69554A43F001039361F1
:10148C00534B9B6903F00103BB60BB68514A7B6AF9
:10149C009B08023352F82330FB607B6A03F0030392
:1014AC009B000F2202FA03F3DB43FA681340FB6044
:1014BC007B68494A93420DD07B68484A934207D0D7
:1014CC007B68474A934201D1022304E0032302E0E4
:1014DC00012300E000237A6A02F003029200934099
:1014EC00FA681343FB603B497B6A9B080233FA683A
:1014FC0041F823203B685B6803F48033002B06D053
:10150C00384B1A683749BB6913430B6006E0354BFF
:10151C001A68BB69DB43334913400B603B685B685B
:10152C0003F40033002B06D02E4B5A682D49BB69AF
:10153C0013434B6006E02B4B5A68BB69DB432949CC
:10154C0013404B603B685B6803F48013002B06D0A0
:10155C00244B9A682349BB6913438B6006E0214BEB
:10156C009A68BB69DB431F4913408B603B685B681F
:10157C0003F40013002B06D01A4BDA681949BB6927
:10158C001343CB6006E0174BDA68BB69DB431549A4
:10159C001340CB607B6A01337B623B681A687B6AC1
:1015AC0022FA03F3002B7FF4AFAE00BF00BF2C3741
:1015BC00BD4680BC704700BF0000321000003110E7
:1015CC000000221000002110000012100000111069
:1015DC00001002400000014000080140000C0140D6
:1015EC00001001400004014080B485B000AF786069
:1015FC000B467B807B689A687B881340002B02D05B
:10160C000123FB7301E00023FB73FB7B18461437AB
:10161C00BD4680BC704780B483B000AF78600B4689
:10162C007B8013467B707B78002B03D07A887B6899
:10163C001A6103E07B881A047B681A6100BF0C37BF
:10164C00BD4680BC704780B485B000AF78600B4657
:10165C007B807B68DB68FB607A88FB6813401A042C
:10166C00FB68D9437B880B401A437B681A6100BF27
:10167C001437BD4680BC704780B586B000AF78602B
:10168C007B68002B01D101236CE27B681B6803F0A3
:10169C000103002B00F08780924B5B6803F00C0376
:1016AC00042B0CD08F4B5B6803F00C03082B12D16E
:1016BC008C4B5B6803F48033B3F5803F0BD1894BC3
:1016CC001B6803F40033002B6CD07B685B68002B29
:1016DC0068D1012346E27B685B68B3F5803F06D195
:1016EC00804B1B687F4A43F4803313602EE07B6889
:1016FC005B68002B0CD17B4B1B687A4A23F480333C
:10170C001360784B1B68774A23F4802313601DE029
:10171C007B685B68B3F5A02F0CD1724B1B68714AC8
:10172C0043F4802313606F4B1B686E4A43F4803381
:10173C0013600BE06B4B1B686A4A23F48033136015
:10174C00684B1B68674A23F4802313607B685B68D3
:10175C00002B13D0FFF7B6FC386108E0FFF7B2FCA2
:10176C0002463B69D31A642B01D90323FAE15D4B82
:10177C001B6803F40033002BF0D014E0FFF7A2FC3D
:10178C00386108E0FFF79EFC02463B69D31A642BD4
:10179C0001D90323E6E1534B1B6803F40033002B00
:1017AC00F0D100E000BF7B681B6803F00203002B44
:1017BC0063D04C4B5B6803F00C03002B0BD0494BF4
:1017CC005B6803F00C03082B1CD1464B5B6803F4DD
:1017DC008033002B16D1434B1B6803F00203002B04
:1017EC0005D07B681B69012B01D00123BAE13D4B6D
:1017FC001B6823F0F8027B685B69DB0039491343F3
:10180C000B603AE07B681B69002B20D0364B012221
:10181C001A60FFF757FC386108E0FFF753FC0246EB
:10182C003B69D31A022B01D903239BE12D4B1B6877
:10183C0003F00203002BF0D02A4B1B6823F0F802B4
:10184C007B685B69DB00274913430B6015E0264B73
:10185C0000221A60FFF736FC386108E0FFF732FC13
:10186C0002463B69D31A022B01D903237AE11D4BA3
:10187C001B6803F00203002BF0D17B681B6803F09C
:10188C000803002B3AD07B689B69002B19D0174BAF
:10189C0001221A60FFF716FC386108E0FFF712FC12
:1018AC0002463B69D31A022B01D903235AE10D4B93
:1018BC005B6A03F00203002BF0D0012000F0A6FAC3
:1018CC001CE00A4B00221A60FFF7FCFB38610FE0AA
:1018DC00FFF7F8FB02463B69D31A022B08D9032306
:1018EC0040E100BF0010024000004242800442422E
:1018FC009E4B5B6A03F00203002BE9D17B681B68EB
:10190C0003F00403002B00F0A6800023FB75974B1B
:10191C00DB6903F08053002B0DD1944BDB69934AA8
:10192C0043F08053D361914BDB6903F08053BB6070
:10193C00BB680123FB758E4B1B6803F48073002B73
:10194C0018D18B4B1B688A4A43F480731360FFF7E2
:10195C00B9FB386108E0FFF7B5FB02463B69D31AC7
:10196C00642B01D90323FDE0814B1B6803F48073C6
:10197C00002BF0D07B68DB68012B06D17B4B1B6AFC
:10198C007A4A43F0010313622DE07B68DB68002B7D
:10199C000CD1764B1B6A754A23F001031362734B0F
:1019AC001B6A724A23F0040313621CE07B68DB6839
:1019BC00052B0CD16D4B1B6A6C4A43F0040313626C
:1019CC006A4B1B6A694A43F0010313620BE0674BD5
:1019DC001B6A664A23F001031362644B1B6A634A59
:1019EC0023F0040313627B68DB68002B15D0FFF730
:1019FC0069FB38610AE0FFF765FB02463B69D31AC5
:101A0C0041F28832934201D90323ABE0574B1B6A56
:101A1C0003F00203002BEED014E0FFF753FB386108
:101A2C000AE0FFF74FFB02463B69D31A41F28832BA
:101A3C00934201D9032395E04C4B1B6A03F002033C
:101A4C00002BEED1FB7D012B05D1484BDB69474ABE
:101A5C0023F08053D3617B68DB69002B00F081801D
:101A6C00424B5B6803F00C03082B61D07B68DB698D
:101A7C00022B46D13F4B00221A60FFF723FB386143
:101A8C0008E0FFF71FFB02463B69D31A022B01D972
:101A9C00032367E0354B1B6803F00073002BF0D178
:101AAC007B681B6AB3F5803F08D1304B5B6823F42D
:101ABC0000327B689B682D4913434B602B4B5B6852
:101ACC0023F474127B68196A7B685B6A0B432749A1
:101ADC0013434B60274B01221A60FFF7F3FA38616E
:101AEC0008E0FFF7EFFA02463B69D31A022B01D943
:101AFC00032337E01D4B1B6803F00073002BF0D061
:101B0C002FE01C4B00221A60FFF7DCFA386108E06A
:101B1C00FFF7D8FA02463B69D31A022B01D90323EB
:101B2C0020E0124B1B6803F00073002BF0D118E07F
:101B3C007B68DB69012B01D1012313E00B4B5B6844
:101B4C00FB60FB6803F480327B681B6A9A4206D107
:101B5C00FB6803F470127B685B6A9A4201D0012324
:101B6C0000E0002318461837BD4680BD0010024027
:101B7C00007000406000424280B584B000AF7860D5
:101B8C0039607B68002B01D10123D0E06A4B1B68C4
:101B9C0003F007033A689A4210D9674B1B6823F08D
:101BAC00070265493B6813430B60634B1B6803F0EA
:101BBC0007033A689A4201D00123B8E07B681B689E
:101BCC0003F00203002B20D07B681B6803F0040396
:101BDC00002B05D0594B5B68584A43F4E0635360C3
:101BEC007B681B6803F00803002B05D0534B5B6824
:101BFC00524A43F460535360504B5B6823F0F0023D
:101C0C007B689B684D4913434B607B681B6803F0F2
:101C1C000103002B40D07B685B68012B07D1474B3D
:101C2C001B6803F40033002B15D101237FE07B6884
:101C3C005B68022B07D1414B1B6803F00073002B30
:101C4C0009D1012373E03D4B1B6803F00203002B09
:101C5C0001D101236BE0394B5B6823F003027B68F5
:101C6C005B68364913434B60FFF72CFAF8600AE0C7
:101C7C00FFF728FA0246FB68D31A41F288329342E6
:101C8C0001D9032353E02D4B5B6803F00C027B68F6
:101C9C005B689B009A42EBD1274B1B6803F0070350
:101CAC003A689A4210D2244B1B6823F0070222494F
:101CBC003B6813430B60204B1B6803F007033A6827
:101CCC009A4201D0012332E07B681B6803F00403C5
:101CDC00002B08D0194B5B6823F4E0627B68DB684F
:101CEC00164913434B607B681B6803F00803002BF9
:101CFC0009D0124B5B6823F460527B681B69DB00D4
:101D0C000E4913434B6000F021F802460B4B5B6805
:101D1C001B0903F00F030A49CB5C22FA03F3094AAF
:101D2C001360094B1B681846FFF78AF90023184605
:101D3C001037BD4680BD00BF00200240001002409D
:101D4C009C260008400000204400002090B48AB07B
:101D5C0000AF2A4B3C1D0FCB84E80F0040F201234F
:101D6C003B800023FB610023BB6100237B620023CB
:101D7C007B6100233B62224B5B68FB61FB6903F0D8
:101D8C000C03042B02D0082B03D02DE01D4B3B621F
:101D9C002DE0FB699B0C03F00F0307F128021344A1
:101DAC0013F8243C7B61FB6903F48033002B13D0C4
:101DBC00134B5B685B0C03F0010307F1280213441F
:101DCC0013F8283CBB617B690E4A02FB03F2BB692A
:101DDC00B2FBF3F37B6204E07B690B4A02FB03F377
:101DEC007B627B6A3B6202E0064B3B6200BF3B6A54
:101DFC0018462837BD4690BC704700BF8C2600089B
:101E0C000010024000127A0000093D0080B485B039
:101E1C0000AF78600A4B1B680A4AA2FB03235B0ADB
:101E2C007A6802FB03F3FB6000BFFB685A1EFA6082
:101E3C00002BF9D100BF00BF1437BD4680BC7047E2
:101E4C0040000020D34D621080B582B000AF7860A6
:101E5C007B68002B01D1012341E07B6893F83D3076
:101E6C00DBB2002B06D17B68002283F83C2078681B
:101E7C00FFF74EF87B68022283F83D207B681A68D6
:101E8C007B6804331946104600F06AFA7B6801221D
:101E9C0083F846207B68012283F83E207B68012270
:101EAC0083F83F207B68012283F840207B68012265
:101EBC0083F841207B68012283F842207B68012251
:101ECC0083F843207B68012283F844207B6801223D
:101EDC0083F845207B68012283F83D2000231846B7
:101EEC000837BD4680BD000080B485B000AF786077
:101EFC007B6893F83D30DBB2012B01D0012335E038
:101F0C007B68022283F83D207B681B68DA687B685B
:101F1C001B6842F00102DA607B681B68164A934228
:101F2C0009D07B681B68B3F1804F04D07B681B68B9
:101F3C00124A934211D17B681B689B6803F007031C
:101F4C00FB60FB68062B10D07B681B681A687B68EB
:101F5C001B6842F001021A6007E07B681B681A6874
:101F6C007B681B6842F001021A6000231846143784
:101F7C00BD4680BC704700BF002C014000040040EF
:101F8C0080B582B000AF78607B681B681B6903F07A
:101F9C000203022B22D17B681B68DB6803F002036F
:101FAC00022B1BD17B681B686FF002021A617B68E5
:101FBC0001221A777B681B689B6903F00303002BD3
:101FCC0003D0786800F0B1F905E0786800F0A4F966
:101FDC00786800F0B3F97B6800221A777B681B687D
:101FEC001B6903F00403042B22D17B681B68DB689C
:101FFC0003F00403042B1BD17B681B686FF00402F5
:10200C001A617B6802221A777B681B689B6903F450
:10201C004073002B03D0786800F087F905E07868EE
:10202C0000F07AF9786800F089F97B6800221A7759
:10203C007B681B681B6903F00803082B22D17B68A3
:10204C001B68DB6803F00803082B1BD17B681B683B
:10205C006FF008021A617B6804221A777B681B6890
:10206C00DB6903F00303002B03D0786800F05DF903
:10207C0005E0786800F050F9786800F05FF97B684B
:10208C0000221A777B681B681B6903F01003102B66
:10209C0022D17B681B68DB6803F01003102B1BD16B
:1020AC007B681B686FF010021A617B6808221A7734
:1020BC007B681B68DB6903F44073002B03D07868E2
:1020CC0000F033F905E0786800F026F9786800F044
:1020DC0035F97B6800221A777B681B681B6903F053
:1020EC000103012B0ED17B681B68DB6803F0010335
:1020FC00012B07D17B681B686FF001021A617868AD
:10210C00FEF704FE7B681B681B6903F08003802BC1
:10211C000ED17B681B68DB6803F08003802B07D132
:10212C007B681B686FF080021A61786800F067FAB0
:10213C007B681B681B6903F04003402B0ED17B6846
:10214C001B68DB6803F04003402B07D17B681B68DE
:10215C006FF040021A61786800F0F9F87B681B6830
:10216C001B6903F02003202B0ED17B681B68DB68F6
:10217C0003F02003202B07D17B681B686FF0200233
:10218C001A61786800F032FA00BF0837BD4680BD8E
:10219C0080B584B000AF786039607B6893F83C30D0
:1021AC00012B01D10223B3E07B68012283F83C2090
:1021BC007B68022283F83D207B681B689B68FB6070
:1021CC00FB6823F07703FB60FB6823F47F43FB6021
:1021DC007B681B68FA689A603B681B68B3F5005F04
:1021EC003ED0B3F5005F00F28780B3F5805F00F05E
:1021FC008580B3F5805F7FD8702B1AD0702B7BD87D
:10220C00602B50D0602B77D8502B3CD0502B73D8F0
:10221C00402B58D0402B6FD8302B64D0302B6BD840
:10222C00202B60D0202B67D8002B5CD0102B5AD0E1
:10223C0062E07B6818683B6899683B685A683B6841
:10224C00DB6800F05CF97B681B689B68FB60FB68D3
:10225C0043F07703FB607B681B68FA689A604EE07A
:10226C007B6818683B6899683B685A683B68DB6810
:10227C0000F045F97B681B689A687B681B6842F420
:10228C0080429A603BE07B6818683B6859683B6801
:10229C00DB681A4600F0BCF87B681B6850211846B6
:1022AC0000F013F92BE07B6818683B6859683B68B1
:1022BC00DB681A4600F0DAF87B681B686021184668
:1022CC0000F003F91BE07B6818683B6859683B68B1
:1022DC00DB681A4600F09CF87B681B6840211846A6
:1022EC0000F0F3F80BE07B681A683B681B68194632
:1022FC00104600F0EAF802E000BF00E000BF7B6887
:10230C00012283F83D207B68002283F83C200023C7
:10231C0018461037BD4680BD80B483B000AF7860DE
:10232C0000BF0C37BD4680BC704780B483B000AF93
:10233C00786000BF0C37BD4680BC704780B483B05A
:10234C0000AF786000BF0C37BD4680BC704780B4CE
:10235C0083B000AF786000BF0C37BD4680BC7047BF
:10236C0080B485B000AF786039607B681B68FB6017
:10237C007B68254A934207D07B68B3F1804F03D02A
:10238C007B68224A934208D1FB6823F07003FB6000
:10239C003B685B68FA681343FB607B681A4A93429C
:1023AC0007D07B68B3F1804F03D07B68174A934208
:1023BC0008D1FB6823F44073FB603B68DB68FA6868
:1023CC001343FB60FB6823F080023B685B6913439B
:1023DC00FB607B68FA681A603B689A687B68DA6213
:1023EC003B681A687B689A627B68074A934203D100
:1023FC003B681A697B681A637B6801225A6100BFCB
:10240C001437BD4680BC7047002C014000040040CE
:10241C0080B487B000AFF860B9607A60FB681B6A63
:10242C007B61FB681B6A23F00102FB681A62FB6884
:10243C009B693B613B6923F0F0033B617B681B01AB
:10244C003A6913433B617B6923F00A037B617A6928
:10245C00BB6813437B61FB683A699A61FB687A69D4
:10246C001A6200BF1C37BD4680BC704780B487B071
:10247C0000AFF860B9607A60FB681B6A23F0100249
:10248C00FB681A62FB689B697B61FB681B6A3B619A
:10249C007B6923F470437B617B681B037A6913436C
:1024AC007B613B6923F0A0033B61BB681B013A696C
:1024BC0013433B61FB687A699A61FB683A691A625B
:1024CC0000BF1C37BD4680BC704780B485B000AFE0
:1024DC00786039607B689B68FB60FB6823F0700355
:1024EC00FB603A68FB68134343F00703FB607B68AF
:1024FC00FA689A6000BF1437BD4680BC704780B440
:10250C0087B000AFF860B9607A603B60FB689B688D
:10251C007B617B6923F47F437B613B681A027B6898
:10252C001A43BB6813437A6913437B61FB687A696E
:10253C009A6000BF1C37BD4680BC704780B485B024
:10254C0000AF786039607B6893F83C30012B01D187
:10255C00022341E07B68012283F83C207B68022245
:10256C0083F83D207B681B685B68FB607B681B689D
:10257C009B68BB60FB6823F07003FB603B681B68C7
:10258C00FA681343FB607B681B68FA685A607B68C7
:10259C001B68144A934209D07B681B68B3F1804FC7
:1025AC0004D07B681B68104A93420CD1BB6823F0A3
:1025BC008003BB603B685B68BA681343BB607B6895
:1025CC001B68BA689A607B68012283F83D207B689F
:1025DC00002283F83C20002318461437BD4680BCEB
:1025EC00704700BF002C01400004004080B483B051
:1025FC0000AF786000BF0C37BD4680BC704780B41C
:10260C0083B000AF786000BF0C37BD4680BC70470C
:10261C0070B500260C4D0D4C641BA410A64209D1BC
:10262C0000F022F800260A4D0A4C641BA410A642A6
:10263C0005D170BD55F8043B98470136EEE755F8C7
:10264C00043B98470136F2E7AC260008AC2600089C
:10265C00AC260008B026000803460244934200D181
:10266C00704703F8011BF9E7F8B500BFF8BC08BCCC
:10267C009E467047F8B500BFF8BC08BC9E46704734
:10268C0002030405060708090A0B0C0D0E0F1010A7
:10269C000000000000000000010203040607080906
:0426AC0031010008F0
:0426B0000D01000810
:1026B4000100000001000000010000000100000012
:1026C4000100000001000000010000000100000002
:1026D40001000000010000000100000001000000F2
:1026E4002C0100002C0100002C0100000A00000055
:0C26F4000024F4001000000001000000B1
:0400000508000FD50B
:00000001FF
